{
  "contractName": "SwapContract",
  "abi": [
    {
      "inputs": [
        {
          "internalType": "address",
          "name": "_factory",
          "type": "address"
        },
        {
          "internalType": "address",
          "name": "_WETH",
          "type": "address"
        }
      ],
      "stateMutability": "nonpayable",
      "type": "constructor"
    },
    {
      "inputs": [],
      "name": "minAmount",
      "outputs": [
        {
          "internalType": "uint256",
          "name": "",
          "type": "uint256"
        }
      ],
      "stateMutability": "view",
      "type": "function",
      "constant": true
    },
    {
      "stateMutability": "payable",
      "type": "receive",
      "payable": true
    },
    {
      "inputs": [
        {
          "internalType": "uint256",
          "name": "_amount",
          "type": "uint256"
        }
      ],
      "name": "withdraw",
      "outputs": [],
      "stateMutability": "nonpayable",
      "type": "function"
    },
    {
      "inputs": [
        {
          "internalType": "address payable",
          "name": "_to",
          "type": "address"
        },
        {
          "internalType": "uint256",
          "name": "_amount",
          "type": "uint256"
        }
      ],
      "name": "transfer",
      "outputs": [],
      "stateMutability": "nonpayable",
      "type": "function"
    },
    {
      "inputs": [
        {
          "internalType": "uint256",
          "name": "_amount",
          "type": "uint256"
        }
      ],
      "name": "changeMinAmount",
      "outputs": [],
      "stateMutability": "nonpayable",
      "type": "function"
    },
    {
      "inputs": [
        {
          "internalType": "uint256",
          "name": "_amountIn",
          "type": "uint256"
        },
        {
          "internalType": "uint256",
          "name": "_amountOutMin",
          "type": "uint256"
        },
        {
          "internalType": "address[]",
          "name": "_path",
          "type": "address[]"
        },
        {
          "internalType": "uint256",
          "name": "_deadline",
          "type": "uint256"
        }
      ],
      "name": "trade",
      "outputs": [
        {
          "internalType": "uint256[]",
          "name": "amounts",
          "type": "uint256[]"
        }
      ],
      "stateMutability": "nonpayable",
      "type": "function"
    }
  ],
  "bytecode": "0x6080604052677ce66c50e284000060015534801561001c57600080fd5b50604051611be5380380611be58339818101604052604081101561003f57600080fd5b81019080805190602001909291908051906020019092919050505081600260006101000a81548173ffffffffffffffffffffffffffffffffffffffff021916908373ffffffffffffffffffffffffffffffffffffffff16021790555080600360006101000a81548173ffffffffffffffffffffffffffffffffffffffff021916908373ffffffffffffffffffffffffffffffffffffffff160217905550336000806101000a81548173ffffffffffffffffffffffffffffffffffffffff021916908373ffffffffffffffffffffffffffffffffffffffff1602179055505050611ab88061012d6000396000f3fe60806040526004361061004e5760003560e01c80632e1a7d4d146100dd5780639b2cb5d8146101185780639d998a3514610143578063a9059cbb1461023c578063e34ffcb814610297576100d8565b366100d857600360009054906101000a900473ffffffffffffffffffffffffffffffffffffffff1673ffffffffffffffffffffffffffffffffffffffff1663d0e30db0346040518263ffffffff1660e01b81526004016000604051808303818588803b1580156100bd57600080fd5b505af11580156100d1573d6000803e3d6000fd5b5050505050005b600080fd5b3480156100e957600080fd5b506101166004803603602081101561010057600080fd5b81019080803590602001909291905050506102d2565b005b34801561012457600080fd5b5061012d6105be565b6040518082815260200191505060405180910390f35b34801561014f57600080fd5b506101e56004803603608081101561016657600080fd5b8101908080359060200190929190803590602001909291908035906020019064010000000081111561019757600080fd5b8201836020820111156101a957600080fd5b803590602001918460208302840111640100000000831117156101cb57600080fd5b9091929391929390803590602001909291905050506105c4565b6040518080602001828103825283818151815260200191508051906020019060200280838360005b8381101561022857808201518184015260208101905061020d565b505050509050019250505060405180910390f35b34801561024857600080fd5b506102956004803603604081101561025f57600080fd5b81019080803573ffffffffffffffffffffffffffffffffffffffff16906020019092919080359060200190929190505050610c07565b005b3480156102a357600080fd5b506102d0600480360360208110156102ba57600080fd5b8101908080359060200190929190505050610f2e565b005b60008054906101000a900473ffffffffffffffffffffffffffffffffffffffff1673ffffffffffffffffffffffffffffffffffffffff163373ffffffffffffffffffffffffffffffffffffffff1614610393576040517f08c379a000000000000000000000000000000000000000000000000000000000815260040180806020018281038252600c8152602001807f554e415554484f52495a4544000000000000000000000000000000000000000081525060200191505060405180910390fd5b80600360009054906101000a900473ffffffffffffffffffffffffffffffffffffffff1673ffffffffffffffffffffffffffffffffffffffff166370a08231306040518263ffffffff1660e01b8152600401808273ffffffffffffffffffffffffffffffffffffffff16815260200191505060206040518083038186803b15801561041d57600080fd5b505afa158015610431573d6000803e3d6000fd5b505050506040513d602081101561044757600080fd5b810190808051906020019092919050505010156104cc576040517f08c379a00000000000000000000000000000000000000000000000000000000081526004018080602001828103825260148152602001807f494e53554646494349454e545f42414c414e434500000000000000000000000081525060200191505060405180910390fd5b600360009054906101000a900473ffffffffffffffffffffffffffffffffffffffff1673ffffffffffffffffffffffffffffffffffffffff1663a9059cbb60008054906101000a900473ffffffffffffffffffffffffffffffffffffffff16836040518363ffffffff1660e01b8152600401808373ffffffffffffffffffffffffffffffffffffffff16815260200182815260200192505050602060405180830381600087803b15801561057f57600080fd5b505af1158015610593573d6000803e3d6000fd5b505050506040513d60208110156105a957600080fd5b81019080805190602001909291905050505050565b60015481565b6060814281101561063d576040517f08c379a00000000000000000000000000000000000000000000000000000000081526004018080602001828103825260078152602001807f455850495245440000000000000000000000000000000000000000000000000081525060200191505060405180910390fd5b60008054906101000a900473ffffffffffffffffffffffffffffffffffffffff1673ffffffffffffffffffffffffffffffffffffffff163373ffffffffffffffffffffffffffffffffffffffff16146106fe576040517f08c379a000000000000000000000000000000000000000000000000000000000815260040180806020018281038252600c8152602001807f554e415554484f52495a4544000000000000000000000000000000000000000081525060200191505060405180910390fd5b868611610773576040517f08c379a00000000000000000000000000000000000000000000000000000000081526004018080602001828103825260128152602001807f494e56414c49445f4d494e5f4f5554505554000000000000000000000000000081525060200191505060405180910390fd5b600360009054906101000a900473ffffffffffffffffffffffffffffffffffffffff1673ffffffffffffffffffffffffffffffffffffffff16858560008181106107b957fe5b9050602002013573ffffffffffffffffffffffffffffffffffffffff1673ffffffffffffffffffffffffffffffffffffffff161461085f576040517f08c379a000000000000000000000000000000000000000000000000000000000815260040180806020018281038252600d8152602001807f494e56414c49445f494e5055540000000000000000000000000000000000000081525060200191505060405180910390fd5b600360009054906101000a900473ffffffffffffffffffffffffffffffffffffffff1673ffffffffffffffffffffffffffffffffffffffff168585600188889050038181106108aa57fe5b9050602002013573ffffffffffffffffffffffffffffffffffffffff1673ffffffffffffffffffffffffffffffffffffffff1614610950576040517f08c379a000000000000000000000000000000000000000000000000000000000815260040180806020018281038252600e8152602001807f494e56414c49445f4f555450555400000000000000000000000000000000000081525060200191505060405180910390fd5b6109be600260009054906101000a900473ffffffffffffffffffffffffffffffffffffffff1688878780806020026020016040519081016040528093929190818152602001838360200280828437600081840152601f19601f82011690508083019250505050505050610ff9565b915085826001845103815181106109d157fe5b602002602001015111610a4c576040517f08c379a00000000000000000000000000000000000000000000000000000000081526004018080602001828103825260138152602001807f494e53554646494349454e545f4f55545055540000000000000000000000000081525060200191505060405180910390fd5b600360009054906101000a900473ffffffffffffffffffffffffffffffffffffffff1673ffffffffffffffffffffffffffffffffffffffff1663a9059cbb610b09600260009054906101000a900473ffffffffffffffffffffffffffffffffffffffff1688886000818110610abd57fe5b9050602002013573ffffffffffffffffffffffffffffffffffffffff1689896001818110610ae757fe5b9050602002013573ffffffffffffffffffffffffffffffffffffffff16611171565b84600081518110610b1657fe5b60200260200101516040518363ffffffff1660e01b8152600401808373ffffffffffffffffffffffffffffffffffffffff16815260200182815260200192505050602060405180830381600087803b158015610b7157600080fd5b505af1158015610b85573d6000803e3d6000fd5b505050506040513d6020811015610b9b57600080fd5b8101908080519060200190929190505050610bb257fe5b610bfd82868680806020026020016040519081016040528093929190818152602001838360200280828437600081840152601f19601f8201169050808301925050505050505061128a565b5095945050505050565b60008054906101000a900473ffffffffffffffffffffffffffffffffffffffff1673ffffffffffffffffffffffffffffffffffffffff163373ffffffffffffffffffffffffffffffffffffffff161480610cac575060008054906101000a900473ffffffffffffffffffffffffffffffffffffffff1673ffffffffffffffffffffffffffffffffffffffff168273ffffffffffffffffffffffffffffffffffffffff16145b610d1e576040517f08c379a000000000000000000000000000000000000000000000000000000000815260040180806020018281038252600c8152602001807f554e415554484f52495a4544000000000000000000000000000000000000000081525060200191505060405180910390fd5b6001548101600360009054906101000a900473ffffffffffffffffffffffffffffffffffffffff1673ffffffffffffffffffffffffffffffffffffffff166370a08231306040518263ffffffff1660e01b8152600401808273ffffffffffffffffffffffffffffffffffffffff16815260200191505060206040518083038186803b158015610dac57600080fd5b505afa158015610dc0573d6000803e3d6000fd5b505050506040513d6020811015610dd657600080fd5b81019080805190602001909291905050501015610e5b576040517f08c379a00000000000000000000000000000000000000000000000000000000081526004018080602001828103825260148152602001807f494e53554646494349454e545f42414c414e434500000000000000000000000081525060200191505060405180910390fd5b600360009054906101000a900473ffffffffffffffffffffffffffffffffffffffff1673ffffffffffffffffffffffffffffffffffffffff1663a9059cbb83836040518363ffffffff1660e01b8152600401808373ffffffffffffffffffffffffffffffffffffffff16815260200182815260200192505050602060405180830381600087803b158015610eee57600080fd5b505af1158015610f02573d6000803e3d6000fd5b505050506040513d6020811015610f1857600080fd5b8101908080519060200190929190505050505050565b60008054906101000a900473ffffffffffffffffffffffffffffffffffffffff1673ffffffffffffffffffffffffffffffffffffffff163373ffffffffffffffffffffffffffffffffffffffff1614610fef576040517f08c379a000000000000000000000000000000000000000000000000000000000815260040180806020018281038252600c8152602001807f554e415554484f52495a4544000000000000000000000000000000000000000081525060200191505060405180910390fd5b8060018190555050565b6060600282511015611073576040517f08c379a000000000000000000000000000000000000000000000000000000000815260040180806020018281038252601e8152602001807f556e697377617056324c6962726172793a20494e56414c49445f50415448000081525060200191505060405180910390fd5b815167ffffffffffffffff8111801561108b57600080fd5b506040519080825280602002602001820160405280156110ba5781602001602082028036833780820191505090505b50905082816000815181106110cb57fe5b60200260200101818152505060005b60018351038110156111695760008061111d878685815181106110f957fe5b602002602001015187600187018151811061111057fe5b6020026020010151611522565b9150915061113f84848151811061113057fe5b6020026020010151838361164b565b84600185018151811061114e57fe5b602002602001018181525050505080806001019150506110da565b509392505050565b6000806000611180858561177b565b91509150858282604051602001808373ffffffffffffffffffffffffffffffffffffffff1660601b81526014018273ffffffffffffffffffffffffffffffffffffffff1660601b8152601401925050506040516020818303038152906040528051906020012060405160200180807fff000000000000000000000000000000000000000000000000000000000000008152506001018373ffffffffffffffffffffffffffffffffffffffff1660601b8152601401828152602001807f96e8ac4277198ff8b6f785478aa9a39f403cb768dd02cbee326c3e7da348845f815250602001925050506040516020818303038152906040528051906020012060001c925050509392505050565b60005b600182510381101561151d576000808383815181106112a857fe5b60200260200101518460018501815181106112bf57fe5b60200260200101519150915060006112d7838361177b565b50905060008660018601815181106112eb57fe5b602002602001015190506000808373ffffffffffffffffffffffffffffffffffffffff168673ffffffffffffffffffffffffffffffffffffffff161461133357826000611337565b6000835b9150915060006002895103881061134e5730611392565b611391600260009054906101000a900473ffffffffffffffffffffffffffffffffffffffff16878b60028c018151811061138457fe5b6020026020010151611171565b5b90506113c1600260009054906101000a900473ffffffffffffffffffffffffffffffffffffffff168888611171565b73ffffffffffffffffffffffffffffffffffffffff1663022c0d9f848484600067ffffffffffffffff811180156113f757600080fd5b506040519080825280601f01601f19166020018201604052801561142a5781602001600182028036833780820191505090505b506040518563ffffffff1660e01b8152600401808581526020018481526020018373ffffffffffffffffffffffffffffffffffffffff16815260200180602001828103825283818151815260200191508051906020019080838360005b838110156114a2578082015181840152602081019050611487565b50505050905090810190601f1680156114cf5780820380516001836020036101000a031916815260200191505b5095505050505050600060405180830381600087803b1580156114f157600080fd5b505af1158015611505573d6000803e3d6000fd5b5050505050505050505050808060010191505061128d565b505050565b6000806000611531858561177b565b509050600080611542888888611171565b73ffffffffffffffffffffffffffffffffffffffff16630902f1ac6040518163ffffffff1660e01b815260040160606040518083038186803b15801561158757600080fd5b505afa15801561159b573d6000803e3d6000fd5b505050506040513d60608110156115b157600080fd5b81019080805190602001909291908051906020019092919080519060200190929190505050506dffffffffffffffffffffffffffff1691506dffffffffffffffffffffffffffff1691508273ffffffffffffffffffffffffffffffffffffffff168773ffffffffffffffffffffffffffffffffffffffff1614611635578082611638565b81815b8095508196505050505050935093915050565b60008084116116a5576040517f08c379a000000000000000000000000000000000000000000000000000000000815260040180806020018281038252602b815260200180611a58602b913960400191505060405180910390fd5b6000831180156116b55750600082115b61170a576040517f08c379a0000000000000000000000000000000000000000000000000000000008152600401808060200182810382526028815260200180611a306028913960400191505060405180910390fd5b60006117216103e5866118f290919063ffffffff16565b9050600061173884836118f290919063ffffffff16565b90506000611763836117556103e8896118f290919063ffffffff16565b61198790919063ffffffff16565b905080828161176e57fe5b0493505050509392505050565b6000808273ffffffffffffffffffffffffffffffffffffffff168473ffffffffffffffffffffffffffffffffffffffff161415611803576040517f08c379a0000000000000000000000000000000000000000000000000000000008152600401808060200182810382526025815260200180611a0b6025913960400191505060405180910390fd5b8273ffffffffffffffffffffffffffffffffffffffff168473ffffffffffffffffffffffffffffffffffffffff161061183d578284611840565b83835b8092508193505050600073ffffffffffffffffffffffffffffffffffffffff168273ffffffffffffffffffffffffffffffffffffffff1614156118eb576040517f08c379a000000000000000000000000000000000000000000000000000000000815260040180806020018281038252601e8152602001807f556e697377617056324c6962726172793a205a45524f5f41444452455353000081525060200191505060405180910390fd5b9250929050565b60008082148061190f575082828385029250828161190c57fe5b04145b611981576040517f08c379a00000000000000000000000000000000000000000000000000000000081526004018080602001828103825260148152602001807f64732d6d6174682d6d756c2d6f766572666c6f7700000000000000000000000081525060200191505060405180910390fd5b92915050565b6000828284019150811015611a04576040517f08c379a00000000000000000000000000000000000000000000000000000000081526004018080602001828103825260148152602001807f64732d6d6174682d6164642d6f766572666c6f7700000000000000000000000081525060200191505060405180910390fd5b9291505056fe556e697377617056324c6962726172793a204944454e544943414c5f414444524553534553556e697377617056324c6962726172793a20494e53554646494349454e545f4c4951554944495459556e697377617056324c6962726172793a20494e53554646494349454e545f494e5055545f414d4f554e54a2646970667358221220e25d0f76b0d287a62dfc48d430d4bab20f23c8f3b6f109e9e000b185cf6bbe1f64736f6c63430007000033",
  "immutableReferences": {},
  "source": "// SPDX-License-Identifier: MIT\n\npragma solidity ^0.7.0;\n\nimport './libraries/UniswapV2Library.sol';\n\nimport './interfaces/IWETH.sol';\nimport './interfaces/IERC20.sol';\nimport './interfaces/IUniswapV2Pair.sol';\n\ncontract SwapContract {\n    using SafeMath for uint;\n\n    address payable private owner;\n    uint public minAmount = 9000000000000000000;\n\n    address private factory;\n    address private WETH;\n\n    modifier ensure(uint _deadline) {\n        require(_deadline >= block.timestamp, 'EXPIRED');\n        _;\n    }\n\n    constructor(address _factory, address _WETH) {\n        factory = _factory;\n        WETH = _WETH;\n        owner = msg.sender;\n    }\n\n    modifier onlyOwner {\n        require(msg.sender == owner, \"UNAUTHORIZED\");\n        _;\n    }\n\n    function withdraw(uint _amount) onlyOwner public {\n        require(IERC20(WETH).balanceOf(address(this)) >= _amount, \"INSUFFICIENT_BALANCE\");\n        IWETH(WETH).transfer(owner, _amount);\n    }\n\n    function transfer(address payable _to, uint _amount) public {\n        require(msg.sender == owner || _to == owner, \"UNAUTHORIZED\");\n        require(IERC20(WETH).balanceOf(address(this)) >= _amount + minAmount, \"INSUFFICIENT_BALANCE\");\n        IWETH(WETH).transfer(_to, _amount);\n    }\n\n    function changeMinAmount(uint _amount) onlyOwner public {\n        minAmount = _amount;\n    }\n\n    receive() external payable {\n        IWETH(WETH).deposit{value: msg.value}();\n    }\n\n    function trade(uint _amountIn, uint _amountOutMin, address[] calldata _path, uint _deadline) \n        external\n        virtual\n        ensure(_deadline)\n        onlyOwner\n        returns (uint[] memory amounts) {\n        \n        require(_amountOutMin > _amountIn, 'INVALID_MIN_OUTPUT');\n        require(_path[0] == WETH, 'INVALID_INPUT');\n        require(_path[_path.length - 1] == WETH, 'INVALID_OUTPUT');\n\n        amounts = UniswapV2Library.getAmountsOut(factory, _amountIn, _path);\n\n        require(amounts[amounts.length - 1] > _amountOutMin, 'INSUFFICIENT_OUTPUT');\n\n        // If using ether balance, convert to WETH first\n        //IWETH(WETH).deposit{value: amounts[0]}();\n\n        assert(IWETH(WETH).transfer(UniswapV2Library.pairFor(factory, _path[0], _path[1]), amounts[0]));\n\n        _swap(amounts, _path);\n\n        //If converting back to ether\n        //IWETH(WETH).withdraw(amounts[amounts.length - 1]);\n    }\n\n    function _swap(uint[] memory _amounts, address[] memory _path) internal virtual {\n        for (uint i; i < _path.length - 1; i++) {\n            (address input, address output) = (_path[i], _path[i + 1]);\n            (address token0,) = UniswapV2Library.sortTokens(input, output);\n            uint amountOut = _amounts[i + 1];\n            (uint amount0Out, uint amount1Out) = input == token0 ? (uint(0), amountOut) : (amountOut, uint(0));\n            address to = i < _path.length - 2 ? UniswapV2Library.pairFor(factory, output, _path[i + 2]) : address(this);\n            IUniswapV2Pair(UniswapV2Library.pairFor(factory, input, output)).swap(\n                amount0Out, amount1Out, to, new bytes(0)\n            );\n        }\n    }\n}",
  "sourcePath": "C:/Users/benwe/Documents/dev/arbitrage/contracts/SwapContract.sol",
  "compiler": {
    "name": "solc",
    "version": "0.7.0+commit.9e61f92b.Emscripten.clang"
  },
  "schemaVersion": "3.2.3",
  "updatedAt": "2020-11-28T05:49:18.340Z",
  "networkType": "ethereum",
  "devdoc": {
    "kind": "dev",
    "methods": {},
    "version": 1
  },
  "userdoc": {
    "kind": "user",
    "methods": {},
    "version": 1
  }
}